:020000040800F2
:100000000050002021020008270200082B020008EF
:100010009D020008A1020008E9020008000000009B
:100020000000000000000000000000003103000894
:10003000350300080000000039030008C508000867
:100040004D0300084D0300084D0300084D03000850
:100050004D0300084D0300084D0300084D03000840
:100060004D0300084D0300084D0300084D03000830
:100070004D0300084D0300084D0300084D03000820
:100080004D0300084D0300084D0300084D03000810
:100090004D0300084D0300084D0300084D03000800
:1000A0004D0300084D0300084D0300084D030008F0
:1000B0004D0300084D0300084D0300084D030008E0
:1000C0004D0300084D0300084D0300084D030008D0
:1000D0004D0300084D0300084D0300084D030008C0
:1000E0004D0300084D0300084D0300080000000008
:1000F0000000000000000000000000000000000000
:1001000000000000000000005FF808F100B583B0B7
:1001100000F0AAF9304B314A1360314A1360314B79
:10012000314A32498B4204D21168196004330432D7
:10013000F7E72A4B1A682E4B9A4200D0FEE7284B6D
:100140001A682C4B9A42F9D1234B2B4A13602B4A45
:1001500013602B4B02E000221A600433294A9342B9
:10016000F9D3254B1B6813B9244B1B6803B1FEE779
:1001700000F086F9694601A800F022F9224C234BD1
:10018000E41AA4100025AC4214DC214C214BE41AE3
:10019000A4100025AC4213DC0099019800F0CEFBBE
:1001A00005461D4C1D4BE41AA410002C0EDC2846FD
:1001B00000F0E2F8154B53F8253098470135E2E797
:1001C000144B53F8253098470135E3E7013C134BB6
:1001D00053F824309847E8E7BABADECA0000002096
:1001E0008400002000000020802D000888000020EE
:1001F0007856341232547698880000202801002066
:10020000880000202C0100207803000878030008F3
:1002100078030008780300087803000878030008D2
:1002200008B5FFF773FF00BEFEE71EF0040F0CBF1A
:10023000EFF30880EFF309807146414A10472DE93A
:10024000F04182B004468846124B5E6B9F6B9D6AFC
:100250001B6B13F0020F03D00E4BDB6A002B0CDB81
:100260000D4800F0B5F8CDF800803B4632462946EF
:10027000204600F009F900BEFEE74BF6AB6100F046
:100280007DF90028ECD0034B4FF00042DA6202B057
:10029000BDE8F08100ED00E02813000800BEFEE795
:1002A0001EF0040F0CBFEFF30880EFF309807146D6
:1002B000244A10472DE9F04182B004468846084B95
:1002C0005E6B9F6B9D6A074800F082F8CDF8008056
:1002D0003B4632462946204600F0D6F800BEFEE7EF
:1002E00000ED00E0381300081EF0040F0CBFEFF320
:1002F0000880EFF309807146134A10472DE9F04159
:1003000082B004468846084B5E6B9F6B9D6A074827
:1003100000F05EF8CDF800803B4632462946204684
:1003200000F0B2F800BEFEE700ED00E04413000864
:1003300000BEFEE700BEFEE700BEFEE7704700001D
:100340003F020008B5020008FD02000800BEFEE7FB
:10035000802D00080000002088000020802D00086B
:100360000000000000000000880000202C01002098
:08037000000000000000000085
:10037800FEE7000008B503460C4A12685AB10B4A5A
:100388001068033323F003030344094A934206D851
:10039800064A136008BD054A06491160EFE700F0F8
:1003A80001FB0C2303604FF0FF30F3E78C000020C3
:1003B800004C00202C01002001230360014B0B603E
:1003C800704700BF040000200FB400B583B004AB31
:1003D80053F8042B01938021064800F015FB0028F0
:1003E80003DD0146034800F037F803B05DF804EB7D
:1003F80004B07047940000202DE9F04385B004460E
:100408000F4643560BB10E461EE0042528462146EA
:10041800ABBE0446384605B0BDE8F08314F9011BAD
:1004280004AA1A4402F8101C0133AB42F6D304AAFA
:100438001344002203F8102C4FF00408E946404604
:100448004946ABBE8046761B002EE3D03546102EBB
:1004580028BF10250023E8E708B5FFF7CDFF08BD42
:1004680008B500F0FDF8024A024B9A6008BD00BFCB
:100478000000000800ED00E008B500F019F908BD1B
:10048800F8B504460D4617461E462748FFF79CFF59
:1004980021682648FFF798FF61682548FFF794FF11
:1004A800A1682448FFF790FFE1682348FFF78CFF15
:1004B80021692248FFF788FF61692148FFF784FF17
:1004C800A1692048FFF780FFE1691F48FFF77CFF1B
:1004D8001E48FFF779FF29461D48FFF775FF1D4C99
:1004E800E16A1D48FFF770FF216B1C48FFF76CFF9E
:1004F800E16B1B48FFF768FF15F0800F0AD115F470
:10050800004F0CD11748FFF75FFF06991648FFF711
:100518005BFFF8BD39461548FFF756FFEFE7314650
:100528001348FFF751FFEDE70C1200081C120008F2
:100538002C1200083C1200084C1200085C1200083B
:100548006C1200087C1200088C1200089C1200082B
:10055800A812000800ED00E0B8120008C812000850
:10056800D81200080813000810130008E812000841
:10057800F812000883691A888A4201D0002070475F
:100588000268033A012A03D80233836101207047C5
:100598000020704782B00023019300932C4A13680F
:1005A80043F4803313602A4B1B6803F40033009331
:1005B800019B01330193009B1BB9019BB3F5A06F0D
:1005C800F1D1234B1B6813F4003F06D0012300939D
:1005D800009B012B04D002B0704700230093F7E77B
:1005E8001C4B1A6842F010021A601A6822F00302C3
:1005F8001A601A6842F002021A60A3F580535A681A
:100608005A605A685A605A6842F480625A605A6856
:1006180022F47C125A605A6842F4E8125A601A6846
:1006280042F080721A600A4B1B6813F0007FFAD000
:10063800074B5A6822F003025A605A6842F00202D5
:100648005A60034B5B6803F00C03082BF9D1C2E72F
:10065800001002400020024008B5FFF79BFF08BDCC
:1006680008B5104B1A6842F001021A6059680E4A20
:100678000A405A601A6822F0847222F480321A60A2
:100688001A6822F480221A605A6822F4FE025A601C
:100698004FF41F029A60FFF7DFFF044B4FF0006230
:1006A8009A6008BD001002400000FFF800ED00E06D
:1006B8001F4B5B6803F00C03042B15D0082B17D0D5
:1006C8001BB11C4B1C4A1A6002E01A4B1A4A1A60EA
:1006D800174B5B68C3F30313184AD35CDAB21549A6
:1006E8000B68D3400B607047124B134A1A60EFE750
:1006F8000F4A53685268C3F38343023312F4803FAE
:100708000AD00B4A526812F4003F0BD00C4A02FB85
:1007180003F3084A1360DBE7094A02FB03F3054ABF
:100728001360D5E7044A02FB03F3024A1360CFE7DC
:10073800001002401C00002000127A000C0000206B
:1007480000093D0010B4012824D018B1022841D076
:1007580010BC7047072910D90F29F9D8A1F108044E
:10076800E4B2A4000F23A3402A48016821EA030346
:1007780002FA04F119430160EAE789000F2303FA3A
:1007880001F0254C236823EA000302FA01F119431A
:100798002160DDE7072910D90F29D9D8A1F1080070
:1007A800C0B280000F2383401C4C216821EA030358
:1007B80002FA00F119432160CAE789000F2303FAFE
:1007C80001F0174C236823EA000302FA01F11943E8
:1007D8002160BDE7072910D90F29B9D8A1F108036D
:1007E800DBB29B000F2098400E4C216821EA0000E4
:1007F80002FA03F101432160AAE789000F2303FAF3
:1008080001F0094C236823EA000302FA01F11943B5
:1008180021609DE70408014000080140040C0140E4
:10082800000C01400410014000100140034B4FF43C
:1008380080321A60043301221A60704700100240A7
:100848001F291CD801280BD010B1022810D07047DE
:100858000B480368012202FA01F10B430360704759
:1008680008480368012202FA01F10B43036070474C
:1008780005480368012202FA01F10B43036070473F
:10088800141002401C10024018100240014B0022B4
:100898001A60704710E000E0064B1860043B1A68C5
:1008A80042F002021A601A6842F001021A60024B12
:1008B8001960704714E000E02001002008B50B4BD8
:1008C8001B78012B03D00A4B1B68984708BD094BBE
:1008D8001A6822F001021A60002207490A600431EE
:1008E8000A601A6822F002021A60ECE7240100206C
:1008F8002001002010E000E014E000E00A4A13881C
:100908009BB20A49C95C0A4B1960138801339BB230
:10091800138013889BB241F6F912934200D07047B6
:10092800014B00221A80FAE7260100205413000820
:100938000C08014008B5FFF779FF02210846FFF7C8
:100948007FFF022200210846FFF7FCFE0222012158
:100958000020FFF7F7FE022211460020FFF7F2FE03
:10096800022203210020FFF7EDFE022204210020CD
:10097800FFF7E8FE022205210020FFF7E3FE02222E
:1009880006210020FFF7DEFE022207210020FFF7E4
:10099800D9FEFFF77BFF02497D20FFF77DFFFEE7C9
:1009A80005090008014B1868704700BF20000020A7
:1009B80030B5141E05469BB0184605DA8B234FF058
:1009C800FF302B601BB030BD4FF40273ADF80C3014
:1009D8000CBF234604F1FF33029305934FF6FF73D0
:1009E80000910491ADF80E3002461E9B69462846D8
:1009F80000F072F8431CBCBF8B232B60002CE1D0A5
:100A08000022009B1A70DDE707B5009313460A46DB
:100A1800014603480068FFF7CBFF03B05DF804FB0D
:100A2800200000202DE9F0478E6882469E420C4641
:100A38009046994637D88A8912F4906F31D00223AC
:100A4800256809696F1A656905EB450595FBF3F596
:100A580009F101033B449D4238BF1D46530530D57B
:100A6800294600F035FB064650B90C234FF0FF30FD
:100A7800CAF80030A38943F04003A381BDE8F0879A
:100A88003A46216900F0B4FAA38923F4906343F04D
:100A98008003A38126613E4426604E466561ED1BB6
:100AA800A5604E4500D94E4632464146206800F0C2
:100AB800AAFAA36800209B1BA36023681E44266033
:100AC800DCE72A4600F05EFB06460028E2D12169F1
:100AD800504600F0B1FAC8E72DE9F04F9DB00393F6
:100AE8008B8980461D060C4616460FD50B696BB9D7
:100AF800402100F0EDFA2060206128B90C23C8F8E5
:100B080000304FF0FF30C7E04023636100230993B2
:100B180020238DF8293030234FF0010B8DF82A302F
:100B280037463D4615F8013B0BB1252B3ED1B7EBB7
:100B3800060A0BD05346324621464046FFF772FF5D
:100B4800013000F0A480099B534409933B78002BA3
:100B580000F09D8000234FF0FF32CDE90523049378
:100B680007938DF853301A932F46052217F8011B67
:100B78004F4800F02FFA049BD0B9D90644BF202271
:100B88008DF853201A0744BF2B228DF853202A785A
:100B98002A2A15D02F4600200A25079A394611F827
:100BA800013B303B092B4DD9B8B10FE02F46B8E7D0
:100BB8003F4A3D46801A0BFA00F018430490D3E7E9
:100BC800039A111D12680391002A01DB079204E0C1
:100BD800524243F00203079204933B782E2B0CD128
:100BE8007B782A2B33D1039B02371A1D1B6803928B
:100BF800002BB8BF4FF0FF3305932E4D03223978F1
:100C0800284600F0E7F938B14023401B03FA00F00A
:100C1800049B0137034304933978062226487E1C37
:100C28008DF8281000F0D6F9002838D0234B13BBD4
:100C3800039B073323F0070308330393099B4B44B3
:100C480009936DE705FB023201200F46A6E7002352
:100C58000A25194601370593384610F8012B303A12
:100C6800092A03D9002BC8D00591C6E705FB012145
:100C780001230746F0E703AB00932246104B04A973
:100C88004046AFF30080B0F1FF3F8146D6D1A3893B
:100C98005B063FF536AF09981DB0BDE8F08F03AB92
:100CA80000932246064B04A9404600F081F8EAE783
:100CB8004D2D0008532D0008572D00080000000096
:100CC8002D0A00082DE9F04791461F468A680B69EE
:100CD80006469342B8BF1346C9F8003091F843203E
:100CE8000C46DDF8208012B10133C9F800302368C2
:100CF800990642BFD9F800300233C9F80030256898
:100D080015F0060507D104F1190AE368D9F800209F
:100D18009B1AAB4229DC94F843302268003318BF91
:100D2800012392062ED404F1430239463046C047C7
:100D3800013021D02368E56803F00603042B18BFAF
:100D48000025D9F800204FF0000908BFAD1AA368A4
:100D5800226908BF25EAE5759342C4BF9B1AED18BE
:100D68001A344D451AD1002008E00123524639466D
:100D78003046C047013003D14FF0FF30BDE8F0875F
:100D88000135C2E73020E11881F843005A1C94F875
:100D980045102244023382F84310C4E70123224657
:100DA80039463046C0470130E6D009F10109D8E795
:100DB8002DE9F04301F1430C0C46097E85B06E29FC
:100DC8001746064698460C9A00F0B38022D8632945
:100DD80036D00AD8002900F0B980582900F083805D
:100DE80004F1420584F8421032E0642901D06929EF
:100DF800F6D120681368050603F104012AD51B689B
:100E08001160002B03DA2D225B4284F843206F48DF
:100E18000A2239E0732900F09D8008D86F2920D074
:100E28007029DDD1236843F02003236003E075298E
:100E380017D07829D4D17823654884F8453055E00F
:100E4800136804F14205191D1B68116084F84230CB
:100E580001238CE01B6810F0400F116018BF1BB213
:100E6800CFE713682568181D1060280601D51B6890
:100E780002E06806FBD51B886F2914BF0A220822E6
:100E88005248002184F843106568002DA560C0F21F
:100E98009580216821F004012160002B3DD1002DAF
:100EA80040F08E806546082A0BD12368DB0708D5F9
:100EB800236962689A42DEBF302305F8013C05F1D8
:100EC800FF35ACEB05032361CDF800803B4603AA50
:100ED80021463046FFF7F6FE01304DD14FF0FF3086
:100EE80005B0BDE8F083394884F8451013682168D7
:100EF8001D1D1B6815600A060BD5CA0744BF41F0C3
:100F0800200121601BB9226822F0200222601022F1
:100F1800B7E74D0648BF9BB2EFE76546B3FBF2F172
:100F280002FB1133C35C05F8013D0B460029F5D1DE
:100F3800B9E713682568181D6169106028061B68E1
:100F480001D5196002E06A06FBD5198000236546C1
:100F58002361B9E71368191D11601D6862680021D3
:100F6800284600F037F808B1401B606063682361C9
:100F7800002384F84330A7E723692A4639463046D8
:100F8800C0470130AAD023689B0713D4E068039BAD
:100F98009842B8BF1846A3E701234A463946304667
:100FA800C04701309AD00135E368039A9B1AAB42D7
:100FB800F2DCEBE7002504F11909F5E7002BACD1C9
:100FC800037804F1420584F842306CE75E2D00088E
:100FD8006F2D000810B5C9B202449042034601D1F2
:100FE800002303E01C7801308C42F6D1184610BD6E
:100FF80010B5431E0A44914200D110BD11F8014BAF
:1010080003F8014FF7E7884210B501EB020307D850
:10101800421E99420AD011F8014B02F8014FF8E735
:101028008342F5D98118D21AD34200D110BD13F8E2
:10103800014D01F8014DF7E738B50546002943D0C1
:1010480051F8043C0C1F002BB8BFE41800F0D0F88E
:101058001E4A1368104633B9636014602846BDE819
:10106800384000F0C6B8A3420BD9216862189342F1
:1010780001BF1A685B685218226063600460EDE77C
:1010880013465A680AB1A242FAD919685818A042F8
:101098000BD120680144581882421960DED11068CB
:1010A8005268014419605A60D8E702D90C232B60B2
:1010B800D4E7206821188A4201BF116852680918CC
:1010C800216062605C60C9E738BD00BF1401002080
:1010D80070B5CD1C25F0030508350C2D38BF0C253F
:1010E800002D064601DBA94203D90C2333600020FA
:1010F80070BD00F07DF8214A1468214691B9204C52
:1011080023681BB9304600F063F820602946304652
:1011180000F05EF8431C24D10C233046336000F005
:1011280068F8E4E70B685B1B18D40B2B0FD90B602E
:10113800CC18CD50304600F05CF804F10B00231DAC
:1011480020F00700C31AD3D05A42E250D0E74B68C8
:101158008C4216BF636013600C46EBE70C46496887
:10116800CCE7C41C24F00304A04205D0211A304661
:1011780000F02EF80130CFD02560DBE71401002005
:1011880018010020F8B5074614460E4621B9BDE8F7
:10119800F8401146FFF79CBF22B9FFF74DFF2546DF
:1011A8002846F8BD00F026F8A0420FD2214638465E
:1011B800FFF78EFF05460028F2D031462246FFF79A
:1011C80017FF31463846FFF737FFE9E73546E7E7C7
:1011D80038B50023054C054608462360FFF7CAF8D2
:1011E800431C02D1236803B12B6038BD1C010020C9
:1011F8007047704751F8043C181F002BBCBF0B58B0
:10120800C0187047537461636B206672616D653AEC
:101218000A000000205230203D2020253038580A8E
:1012280000000000205231203D2020253038580A87
:1012380000000000205232203D2020253038580A76
:1012480000000000205233203D2020253038580A65
:101258000000000020523132203D20253038580A45
:1012680000000000204C52203D2020253038580A2C
:1012780000000000205043203D2020253038580A27
:101288000000000020505352203D20253038580AD5
:10129800000000004653522F4641523A0A0000000F
:1012A8002043465352203D2020253038580A00005C
:1012B8002048465352203D2020253038580A000047
:1012C8002044465352203D2020253038580A00003B
:1012D8002041465352203D2020253038580A00002E
:1012E800204D4D464152203D20253038580A0000F7
:1012F8002042464152203D2020253038580A00001F
:101308004D6973630A000000204C522F4558435F13
:1013180052455455524E3D20253038580A00000099
:101328005B486172644661756C745D0A0000000078
:101338005B4275734661756C745D0A005B55736139
:1013480067654661756C745D0A0000008181818162
:10135800808080807E7E7D7D7D7C7C7B7A7A7A79B8
:10136800797878787878787878797A7B7C7D7F80D6
:101378008183848688898A8B8C8D8D8D8C8C8B89D2
:1013880088878685848382807F7E7E7C7B7B7A7853
:101398007675747371706F6E6E6F707274767A7E14
:1013A80082868B9095999C9FA1A2A3A19F9B9691C1
:1013B8008B86817C7774727171727476777879799B
:1013C80079777674716E6A67656466696E757C8410
:1013D8008B92979CA0A3A5A5A4A09A92887E746CD2
:1013E80066636265686D73797E858B9096999C9D1E
:1013F8009D9B96918B857F7A77747371706E6C6AFA
:101408006865636161626265696C71757A7F858BF5
:1014180092999D9E9D9992897F76706C6B6F747C72
:10142800848C93999EA2A5A6A7A5A0998F83796E6F
:10143800655E59565453535454585E656F79848E7B
:1014480095999A9B9A9A9B9B9B9993897D6F635CCC
:10145800585B647181909CA7AEB2B5B6B6B2ADA325
:101468009789796A5D544E4B4C4F5356595A5C6272
:101478006976838F999EA19D9B98989A9B9D9B9234
:101488008573625148464C5D6E8396A4AEB3B6B67A
:10149800B6B4AFA99E9181716357514E52575C63A0
:1014A8006464616567727E8894969A95928F8C9130
:1014B80095999A9384715C4B41454F657D95A9B484
:1014C800BAB9B5B1ADA9A49E94887A6A5F57575A3C
:1014D800626B71726D625A5958697588989DA49C9F
:1014E8009E979B9FA2A49C8B71553B2C2C3D577EAD
:1014F8009CB8C8C9C5B9AFA4A099928C7E7262592C
:101508005457626C787B7669544F46516778959B3F
:10151800A79E9997919EA1A7A49378593B282A3F03
:101528005E8DB1CBD9CEC1AB998C83827874675963
:101538004E4448506474838378676358687E90B1DA
:10154800ADB8A39A918A9A9DA69F8D6D50332A367D
:101558005479A6C5D2D4BDAC91817670716B6E6496
:10156800615A5C626D7C8281755C54565A8799C257
:10157800C7C4B897947E9097A0A08B704C362D3B2B
:101588005E85AECECDCFB29B897573666C5E5F5CAF
:1015980057606778828E89775E382C3A498BAFD945
:1015A800E5CFBD89836F829AA4A991704B373248E1
:1015B8006E94AFC5B8B5978782717A6567535257ED
:1015C8005D76829592896F492A0A1A3A66B2CDF0F9
:1015D800DFC3A4787A6E8D9BA3987C5F46434C69E1
:1015E800849BA6AFA4AA9B9F9E8B866157434B60A2
:1015F800779BA4A89170461F0D05335B94CCD3E369
:10160800BDA9887A8283A29FA188725C545B667F99
:101618008C969EA3A4B0ACB2A49077564B455A7250
:1016280090A5A496735026150C2E6388C7CBD4B901
:101638009B86737E819B9DA08E7A665D5D66727EB9
:10164800878A9C98B4B6BCBC9B835B473E536E901C
:10165800ADA89C71481F0C0A29658BC4CECEB696DE
:1016680082707A7C92969C8E86726B6A6570717DA8
:10167800819BA1BBC0BBB390745549465D758FA4CF
:101688009D8D69472716182E6788BFCECDC1998BC7
:10169800727A7C8C969B9289796A685D686C7B8B80
:1016A800A5B8C9CCBDA781634B464E657B8F978E85
:1016B8007E634C3B30293F5E7BA9B8C1B99E8B7EC7
:1016C80076838C99A3959172695855616B8799BDFA
:1016D800CAD4CFB299765A504F53696C787A6C6BEA
:1016E8005D58535246626A79A198A79C86887A8386
:1016F8009497AFA29E906E6D565C656D8694B1B856
:10170800C0B99B8F6F636768737E79756F5D606121
:101718006575766F664E575B6F9297A69787827A44
:1017280091A1BBC5B8A4755C4244586D8E9CA8A510
:101738009D8F8983828A87898270675A525E617415
:10174800848892847D7264686C767B7E7C77797DF0
:101758008C9BAAB1AEA491817672737775736D6A0A
:101768006D778290969290807C78777E7D7D797374
:1017780073757C888F9595928B867E77787377774B
:10178800767874737371757A81888E8C887F736E9E
:10179800696D797E858378706666717F939DA19E59
:1017A80091867D787D83888D8A84807B7F848B91E8
:1017B800928F888278767474787674716B676566B0
:1017C8006D757D81817C736964636978828E908B85
:1017D800857E7B8088919996938C87898A92959546
:1017E800928C86838383888785837E7D7C7F7F84B4
:1017F80081817E79746E6A676A6A767A8287828165
:1018080077716E7178808585817B787A80888F91F1
:10181800918B84807C7D7E808082828287898F8F75
:101828008F8D88847E7874706E71757A7F828382DA
:10183800807E8081858685827B777475787D8082BD
:1018480084808180818384837F7E7B7C7F82838484
:10185800817D7B7778797A7E80808381818280829E
:1018680081838281807E7E7C7E7D7F808181818272
:10187800828381827F7D7D7B7C7C7D7F8182838268
:1018880080807B7A787677787A7D7E7E807F828486
:101898008789888783817E7E7E7F8080807E7E7E2A
:1018A800808081817E7D7B7C7C7D7E7E7C7B79785F
:1018B800797779797B7D7F82838484838383838628
:1018C80086878683838080818184858484817F7DE7
:1018D8007B7A797879797B7E7E8183828381807E29
:1018E8007C7A797A7B7D7D7F80818487898B8B8BDD
:1018F8008B8784817E7D7D7D8081838484848483BD
:101908008381807E7D7C7B79797A797C7B7D7E7E04
:101918007E7D7E7D7E7C7D7D7E81828485848584BE
:1019280084858586858383808180818181817F7F8D
:101938007C7D7D7F8180807F7E7D7D7C7D7C7C7BC6
:101948007A79797A7A7D7D7F8181828181808080B0
:101958007E7D7C7C7D7F7F81818182818282828283
:10196800828181828182808180818181828282815B
:10197800807F7D7D7C7E7E7F7F7E7E7D7D7E7E7E80
:101988007D7D7C7C7C7D7F8181828282818081805B
:10199800828283838181808282848483838388890D
:1019A800857D797A7F868987827B797C7F80807D37
:1019B8007C7D7F828383807E7C7C7D7F807F7E7C34
:1019C8007D7F818281808080848584828684827EF6
:1019D800797D8A928B83767579878F938A7C7070EC
:1019E80079828A8B867E7D7C7F7E82878A87827DCC
:1019F8007C838787847D7778838D8E8A7E77757CD4
:101A0800838888827B79797C7C7D7B797B797F81EF
:101A1800807E7F808086827E817F828887828181A6
:101A28007E82878584837E7D858A8A8C857D7A7F80
:101A3800838989807A78787C7E797373747A807DDB
:101A48007978787C818281817F7E7E7E7D7E8181AE
:101A580083838385888C8F8F898481808283828029
:101A68007B7673747473726E6C6C6C6D6D6B686876
:101A78006B707981868D92959B9E9FA1A0A2A19D56
:101A880098918D8A86827D7979767677736E696288
:101A98005A544E4A45425968788D92969CA5A7ABF0
:101AA800AEA2A19E8E8C80746F6D7083A2AEB9B702
:101AB800A5A2A0A09F96816C5D4C4748454A4B441F
:101AC80041385A7B90B1AA9F93949CA5B2A297964D
:101AD80080848571776C6B738795A9C1B8BCB09AFF
:101AE8009185726A574A484C4E57574D4C3E33467B
:101AF8007887B8C1AEA7949296A39A939184818F60
:101B08007A847E727C818E9BB4B4B9B79F917C61D4
:101B180052453E4456646A705B4F43302A4A7F966A
:101B2800D0CDBFB49C9C9AA2928C887C8591818BE5
:101B38007D6F767A8599ADAFBBB49C896C4D413F7A
:101B4800455F7A828C806657422D2A3E7898C7D2A4
:101B5800BAAE91938C938B808181899C9690876D86
:101B6800696974819DA7ABB0A58F7D5F474D55709E
:101B78009096948160483B2C27273F7CA0CFD7C6FE
:101B8800AA8E887A8D83818B89909C8E7E75595612
:101B9800656D82A7AFB8B7A18A76574B58607D9319
:101BA8009699866654433433304488A8D0DEBFA45F
:101BB800877E74878281948E949A83776A54546757
:101BC800788FB2B7C1BCA895775C505B6990A5AB1C
:101BD800AA9074564233292B2A649FB6E2CCAB9064
:101BE800766F73887E92988E9F907F756258677E15
:101BF8008AB2B9B4BCA396866C5659617699A2A5E7
:101C08009E83655337282421235F8EABD9C0AD8BC3
:101C1800756F768C849A98919786756B5F54637606
:101C280082A3A9A2A399948C806D6464698192951A
:101C380096856B5544332E322C457F91BBCDB2A48B
:101C48008B807A938D939C898683757477686D7978
:101C58007F90A69FA49B9490857E717168748085FF
:101C68009292897A654D40332A2A487291BCC6C33C
:101C7800B7A69B98A19B9B95827A766C726E6A6FC9
:101C88007C889AACA5A89B8A807B736C7469707AEF
:101C98007B86908B8480655C50433A4B606F9AA03A
:101CA800AEB1A6A3A5AAACB2A5958472625C534E48
:101CB8004E54627890A0A7A1968E8A8788827A71FE
:101CC8006A686A6F70787D868A8F8D8480797D7D59
:101CD8007C796D635C6068767F868A909597989228
:101CE8008A817D7B7C79776D6667646B73777F8388
:101CF8008384858384868892979B9A9893979D9EE0
:101D08009F9A90837E7874736B635B59595F6062A6
:101D1800626870798382837F7A81858A92919090B4
:101D28008D8C8E8D8C8D91999FA19C948B878889A1
:101D38008D8985807E7F7F827C756E6B6A6E6F6B06
:101D48006863626369696868666E7A88949C9A9821
:101D580095928F8A857D7C7C7E83817B7772767D68
:101D680084888685808384878883807D82858B8E1E
:101D78008B88837F7C7870645D57565B5F63686D82
:101D8800747F868C908E8D8D8D8C8D88827E797AED
:101D98007C7F7F828183868386838485868A8D90F3
:101DA80090908E8E8F91918D8C8985827F7C7672B2
:101DB8006C686664646363656A70787F8185868809
:101DC8008A8C8C8B89868686868A8B8C8C8D8C8B6C
:101DD8008A8685848587898A8C8B8B8B8A8A878774
:101DE8008483828180787169645E5B5B595A5B5E2B
:101DF800656C747A7F81868A8C8F8D8B8A878683BF
:101E0800817E7B79787B7C808384858686868785BE
:101E18008687888B8F90908D8887837F7B756E6986
:101E28006561605E5B5C5B5F64696E74797E838804
:101E38008B8C8A888684848485878A8D90939392F4
:101E48008F8C8A88898B8A8C8D8E91929392918EB1
:101E58008C8A87837D78726C66605C575555585CB0
:101E680062696E74787B7E8084898E939394939153
:101E780091908E8D8B8C8D8F8E8E8B8784828183B3
:101E88008386878A8D9192918E888582807C7871ED
:101E98006C6865635E595553535A60676D72777CF9
:101EA8008387898A898A8C8D8F8F8E8C8989898A84
:101EB8008A898886888A8B8C8B8B8D8F91918F8C61
:101EC8008B898886827E7974706C6A67625F5C5BD6
:101ED8005C5D5E6063656C727A81878B8E9191928E
:101EE80091908F8E8D8D8E8D8E8E8F8E8C8A88861A
:101EF8008688898C8E8F91909091908E8B87838124
:101F08007E7B78736D6B6661605F5F605F5F616247
:101F1800666D73777C80858B90949695908E8C8C6B
:101F28008C8B8988888787888686868788898B8C22
:101F38008C8B8B8B8B898683817F7D7A7672706C94
:101F48006865636261605F6062676C6E7074787EFA
:101F580083868A8B8E908F8F8E8F8E8C8A888886C8
:101F6800848382838485858687898A8C8D8E8E8DED
:101F78008C8A898784817E7D7D7975716D696767B3
:101F88006766666566686B6D70757A7F8285888B13
:101F98008D8E8E8D8C8B8988888888888989898A96
:101FA8008A8C8C8C8D8E9093999B9995929089862A
:101FB80084807B77716B635C565453565554585BD9
:101FC80060646A6E737B838B92999C9F9F9E9B979C
:101FD80092908B8784818081828386888A8D909273
:101FE800949493928F8C877F77736E67625C565058
:101FF8004B474E4C4A52565E636D77828E9BA5AD19
:10200800B2B2B4B0ACA59B8E8A7F777572727377C3
:10201800798085888F93959B9B9C9C9997938B84BB
:102028007C746C645B544D44414A45444A4F585E45
:102038006B758492A0ACB5B7B6B6B1ACA5988985D6
:102048007871706C6B7173767F858B90969B9FA26D
:10205800A6A6A6A5A09992897E74685C52473D35CC
:102068003C3B3840424D515C69768797A5B0B5B581
:10207800B9B6B3AEA4938D8075756F6B70777880A1
:10208800878C92979BA1A3A6A9A7A6A09893897DC0
:1020980071665A51473C393F373941454D52626C58
:1020A8007C8F9DAAB7BBBCBEB8B3AA9D90897A7332
:1020B800736B6B6E70757F858B9299A0A6A8A9AB80
:1020C800AAA7A19892887D72635648393342303363
:1020D8003C3B575D6F767E8DA2B1B0ABAAABB0AA80
:1020E8009285797A71686262717E8A8F929CA3A0C8
:1020F8009EA1A1A7A1989798877969615B54473CED
:10210800304084707B737F9F92866680839383764A
:102118007B8381787770787C8578807F8D85808CCB
:10212800909C928D8D9CA0A4A8B2B3B0A296857401
:1021380067615A4F483E3844866F7A7B7B998A7F1D
:10214800658282938C8387897C7B78686D6C7775D0
:1021580081809390999CA8A796938D939AA3A7B7EB
:10216800ACA89A9176675A57594D3E3B3668977591
:10217800877F98988C6C6A898896898586876C6F22
:1021880061595C65667378818E86979FA696948E52
:102198009595A0A3B5B6A79B8D7F6A6353595745FC
:1021A800362A3788857C7F88A39D8762808B99989B
:1021B8008C85907E6F6A54536465647B798E8A85BA
:1021C80091A7A0978D8999A4ABACBAB0B099866E47
:1021D800615E615F56483E396A9776857F99999026
:1021E8006C6A878A9B8E8F8E917477645760696753
:1021F800747D808C849398A599908A8F98A3ABB7A7
:10220800B7AC9E8B78635850575A4D403951A188C6
:102218007F838FA59983638889949585818C786B52
:1022280069565D6B666A807C888282919A94918BEC
:102238008A9199A3A9BAAFAC98877565564E504C48
:1022480042382F61987884829AA29B7B71968A9AE9
:102258009681848F72776A5C6A757076857E8980CC
:1022680082879E948C8B868D99A0A6B6B1B4A093D4
:10227800796C52534F423D393B6B9B768A8BA0A4B5
:10228800A382809D8E9A8E787882616A615D667875
:102298007985998C9691918E91878C8E8588949961
:1022A800A3AAA2ACA89B887B5F5D543F36342E530B
:1022B80084657A8796A8AD9F94A89E97917867645D
:1022C800515453514C667F8CA0A39C9EAA9B98891D
:1022D8007E89897B8084889599959B9F948F847645
:1022E8006C5E4C433836474E4E5D6F7D879FA5A97F
:1022F800B9A6A0A59682745F585C5A545B636C8437
:1023080087898990939EA29D988F939192878587BC
:102318008B909190959C9C9D98928C85766E615B34
:102328005A5A565C60656F67676B696A706A72763D
:102338007D858A91929899989597929A9C9A999561
:1023480093908E82807E7A7874717B8284888A8C5E
:102358009290838179767B757277797D817A7677A9
:10236800706C6A605F5E6162696F70787B7E82857F
:10237800868F9694959493969188848281817874B7
:102388007C838A8B8B8B919188827B797974727329
:10239800777C7E7F7F838484817D7777746E6E6A95
:1023A80066666765696C717A8383878B8C92908B7C
:1023B800868884817B797D84898B8F8F93938E8B9C
:1023C8008985827C79767776737476777B7E7E8250
:1023D800828583848582807E7B7A7A787C7E807E03
:1023E8007E7E81837F7D7B7C7C777274787C7E7F28
:1023F80081878C8A898A8A8D8B8685858684807E6A
:1024080081808181828282847F817F7E79757271E9
:10241800737375787A7B7D7E828382817E7F7D7AF5
:10242800777A7D80807F8084878484848587837F92
:102438007D7D7C7A77767A7D7F8084868C8D8C8E84
:102448008D8D8A84807D7D7B7A79767879787B7AA0
:102458007A7A7A7977757376797A7D7A86918A87A6
:102468008F969494918D8B8785857B6F7076747425
:10247800767983888C8F8D8F8D8B87868481827EF9
:10248800787876716F69666A6B67696D70757F8336
:1024980083878F939091918F8C89847E78757371DF
:1024A80071737B80858E93999FA1A2A09D978E863C
:1024B8007B7169615A544B494748485F5A54707B4D
:1024C800767C9C969FB2B5B3B8B2A5A68F827D697B
:1024D800565854494C555A68788294A5AEB6C0C22D
:1024E800BEBCBAAFA49B9080776C625C55545453C1
:1024F8004B4E4E685251716D6274947D91A4ACAB91
:10250800B7B1B5B6989C8D7165664B484A4E4A5B23
:1025180069758991ADB3B6C5CDC0C4C6B3ABA59630
:1025280081786A5E534B4E49424149425E4D4A6E3C
:1025380067606F8D788A9EA5A7B8B1B9B097A88A49
:10254800706D6A4A4F504D4B5D666D8A8AA6B2B46B
:10255800C0D0C6C9C7C0B6ABA18D7F6D6554454113
:1025680045393D403D415E4C5371696B7C8D869980
:102578009FADAAB5B4B6A59EA1816F71654B5653A0
:102588005152636A777F91A9A9B4C5C6C0C9C6BDAF
:10259800B5B1A695877B705A524E433C403A3A35BE
:1025A8004A4D3B5E63616983848999A7A8ADB7B238
:1025B800B0A0A6937A7C775A615E5B5A606F727B93
:1025C800859C9BA3B4BAB1BDC2B7B4B1AC9D938A84
:1025D8007E69605B4A43433D333B344B4340636011
:1025E800617286838F9DA8A5B4B3B0ACA0A38E7F7B
:1025F800817363696763606C71717D899096A0AD22
:10260800ABAEB7B2B0B1B0A19C9688786D63584EA6
:1026180049473C3C39494A3E5E645F6F81838B99E8
:10262800A5A3ACB3AFAEA1A797858780696D6E618E
:1026380063676E6E777E8E9397A8ABACB6BAB4B765
:10264800B6ABA29A897B6E5D554A40433C363A4503
:102658004A3F5962606D7E838897A5A5ABB7B2B033
:10266800A8AB9A88878268676C5E576165616E75EA
:10267800828892A0A9A9B4BAB6B5B8ADA0998A7B48
:102688006D61524E40413D3834414D3C54625F6863
:102698007F848A97A8ABAFBBB9B7ADB0A18B89824D
:1026A80067666858555B605E6972818891A3AAA8BD
:1026B800B8BDB4B6B7AD9D9A8D7C6C675951474883
:1026C800433E3F4F51436568627287858F9EAAAD2E
:1026D800B0BEBAB5ABB09C88867D65636358535A63
:1026E800625F6C76828897A3A9ADB7BAB5B5B3AB6C
:1026F8009C978A796764554B47433F403F4D554502
:10270800636A677187878D9EA9ADB0BAB6B5A6AB67
:10271800998280795F5B5F54505662606F758593CC
:1027280098A3B4AFB3BDB6B0AEAA968E8274615901
:102738004F4B3E40443F3E535A4769706C768D8EEE
:1027480091A0AEAFAFB9B7AFA1A6947A79755A592F
:102758005D555259636A6F7F928EA3B0B0B3BDBA0C
:10276800B4B3ADA296897C725D594F4444433C434F
:102778004152584F6E72727D949095A8AFABB5B820
:10278800B0AB9F9E8977716E53565B5252606970E9
:102798007D899E9FAAB7BDB4BCC0AFA9AB98877FFF
:1027A8007465545049423C423F3E4762535D7B76D4
:1027B8007A889C919EADAFABB2B2AB9C9392776591
:1027C800665F49525C55597178838E9FB1ADB9C423
:1027D800BFB7BDB7A59F9B86766E61544644413806
:1027E8003B403F405F5D56787F78879C97A0ABB1B0
:1027F800AEB2B0AA9C8C8D765E5C5B464A52575846
:10280800697A86949FB5B7B7C7C6BAB9B7AC9D966B
:102818008B7A6C655A4D4449403D4246415D64524D
:1028280076827A82A2999FB0B3AFB5B4A69F888802
:10283800765A535B444455585A708288A0A7B4C44A
:10284800BCC4CFB9B6B6A7999183776C625754497F
:10285800484D42444E45546B526C827B7A9A9A9901
:10286800AFAEAEB5B2A1A18A82755B4E564A3D5055
:102878005F596E8589A3B0B7C5C9C4C9C1B3ACA631
:1028880095897F70675C504D484244463F45485C97
:10289800615471817A7FA09AA0AFB0AFB8AD9C9F08
:1028A800847C6B554C4E4041515A5E718C8FA6B555
:1028B800B8C4C9C1C3BCB0A59F94837E7168615771
:1028C80053514B484B4548465E5F51707E7C7B9F19
:1028D800A0A0B1B5B6B9B19FA2867968574A494355
:1028E80040525C62768F95ACB6BFCCC9C3C5C0AC4C
:1028F800A6A093847E726C635857534D494C454942
:10290800495B5F536D7B7F7C99A0A3B1B2B7B8AE2A
:102918009EA1867867594C454A44515E64768C92EC
:10292800A9B1B6C3C2BDBBBBA99F9D90827C736C85
:10293800665A5A584F4B4E4B45494D605757707E13
:1029480077809D9BA6ACAEB2B3A19896816E635971
:102958004B504C4D5E666B7F9098A7AEB7B8BCB82D
:10296800B4B4A39F9D8F8181796F6864605A57556D
:10297800565854585E696F68777F85838C92959D09
:102988009898A09D8B8B857E77696D6C6C6E727A3A
:1029980080868D91979E9F9E9EA2A29B98979591C7
:1029A8008B8687837B7874706E66656764666865F6
:1029B800686F6F6F727B75767C7B78797F7C7D80A2
:1029C80084828488878B8E8E8E92908F918A898B51
:1029D80084818681818381828483848785888B89A9
:1029E800868A8281807A7979726D736B676765668A
:1029F80066616764616969666E797A82919498A75D
:102A0800A3A4AAA59F9E94908A817B7877727872F6
:102A18007A7C788387858A928E9293918E91898623
:102A2800857D79766E6A6A615E626059645E5F6B05
:102A38006A6A788380909A9AA2AAA4A4A59C97907F
:102A480089847D7573716F707274797D80888B8EBF
:102A58009398999B9B9A97948F89837B746C6560F4
:102A68005A53525754525E5A5E6D7071828D8D9CC6
:102A7800A4A4A8B0A7A2A2988F887E77726B6B6671
:102A8800666C6D6E7A7C838D8F949EA09FA6A4A0A1
:102A9800A19A918F837972675C5A5148484D4B4A85
:102AA8005954616A7076849297A2A9ADAFB4ABA766
:102AB800A0998D847B736E676561646A6B6C777CA3
:102AC800838C92959EA5A4A6A8A6A29E938D827893
:102AD80070655A595148484C4E4B58585C6C76753D
:102AE800829495A0ACACACB6ADA4A39B8F887E7540
:102AF800736C6866686A71707781838B95959BA5FE
:102B0800A1A3A4A09C9A8F8583776D6861595954B5
:102B18004E4D5654525D5D616E7573828E9199A5C6
:102B2800A2A7ADA09D9B9186837873716C67686B33
:102B38006E74777E868C93989BA0A2A2A0A09A968A
:102B48009188807B736B66615E5B595555565C5CFA
:102B58005E65696F787C808E9396A2A5A4A9A79DCF
:102B68009B978B85807774736F6D6F74767B838783
:102B78008D96999AA0A29FA19F97949086817C7523
:102B88006F6B696563625F5F5E5F626367696D71E2
:102B9800777C7E868C91989A9C9E9F9B96938E8834
:102BA800837E7776767372767A7A8184868D919130
:102BB80095989694958F8A88827C7C7671716C6AD8
:102BC8006A67666667646669686C6E6F7274767A3F
:102BD8007D7F84888B8E919092928E8D8C86848353
:102BE8007E7D7E7C7B7E808286888B8D8F90919087
:102BF8008F8D898784807D7C78757572707271700D
:102C08007273717273727272716F71727174767994
:102C18007C8085868C8F8F8F8E8E8C8C8A8686841E
:102C280082828282838686898B8A8D8C8B8B8B8726
:102C38008583817F7F7C7C7C797B7A78797A7879C7
:102C4800787575737172706D6F6E6D70727276795A
:102C58007B808283878A8A8C8D8C8C8C898A8987F1
:102C680088868686878885878888878685848582FA
:102C78008181807F7D7B79797977777877767676A9
:102C880073737270717070717272737476777A7B05
:102C98007F81828384878787868888888887898ACE
:102CA8008A8A8C8D8D8D8F8F90908E8C8C8986855D
:102CB8008280807D7B79787878777878777977776C
:102CC80077767677757474747272737073747477B8
:102CD800797A7A7D7D7E808083848588898B8D8FC3
:102CE800909394949595959492908C898684817C00
:102CF8007A7977757474757778797A7A7C7A7A794B
:102D08007978777675747273717172727274747679
:102D1800777677797A7B7F8284878C8C8F9293956C
:102D28009798979494918D8C898683817F7D7E7EF8
:102D38007E7F7F7F80807F80807E7E7E7C797877B3
:102D4800747471706E232D302B2000686C4C0065F4
:102D580066674546470030313233343536373839BF
:102D680041424344454600303132333435363738F2
:082D78003961626364656600C5
:102D8000785634129000002000000000000000007F
:102D900000000000010203040607080900A24A041B
:102DA00024000020000000000000000000000000DF
:102DB0000000000000000000000000000000000013
:102DC0000000000000000000000000000000000003
:102DD00000000000000000000000000000000000F3
:102DE00000000000000000000000000000000000E3
:102DF00000000000000000000000000000000000D3
:082E0000000000003254769836
:040000050800010DE1
:00000001FF
